:020000040800F2
:1000000000A00020E141000859420008D129000861
:10001000D9290008E1290008594200080000000021
:10002000000000000000000000000000594200082D
:10003000594200080000000059420008C15400085D
:100040005942000859420008594200085942000824
:100050005942000859420008594200085942000814
:100060005942000859420008594200085942000804
:1000700059420008594200085942000859420008F4
:1000800059420008594200085942000859420008E4
:1000900059420008594200085942000859420008D4
:1000A00059420008594200085942000859420008C4
:1000B00059420008594200085942000859420008B4
:1000C00059420008594200085942000859420008A4
:1000D0005942000801000010594200085942000826
:1000E0005942000859420008594200085942000884
:1000F0005942000859420008594200085942000874
:10010000000000000000000000000000594200084C
:100110005942000859420008594200085942000853
:100120005942000859420008594200085942000843
:100130005942000859420008000000000000000079
:1001400059420008594200085942000800000000C6
:10015000000000000000000000000000000000009F
:100160000000000000000000594200085942000849
:1001700059420008000000000000000000000000DC
:080180000000000059420008D4
:10018800844641EA000313F003036DD1403A41D39A
:1001980051F8043B40F8043B51F8043B40F8043B59
:1001A80051F8043B40F8043B51F8043B40F8043B49
:1001B80051F8043B40F8043B51F8043B40F8043B39
:1001C80051F8043B40F8043B51F8043B40F8043B29
:1001D80051F8043B40F8043B51F8043B40F8043B19
:1001E80051F8043B40F8043B51F8043B40F8043B09
:1001F80051F8043B40F8043B51F8043B40F8043BF9
:1002080051F8043B40F8043B51F8043B40F8043BE8
:10021800403ABDD2303211D351F8043B40F8043B88
:1002280051F8043B40F8043B51F8043B40F8043BC8
:1002380051F8043B40F8043B103AEDD20C3205D398
:1002480051F8043B40F8043B043AF9D2043208D090
:10025800D2071CBF11F8013B00F8013B01D30B8802
:1002680003806046704700BF082A13D38B078DD0E0
:1002780010F003038AD0C3F10403D21ADB071CBFB2
:1002880011F8013B00F8013B80D331F8023B20F81C
:10029800023B7BE7043AD9D3013A11F8013B00F855
:1002A800013BF9D20B7803704B7843708B788370DD
:1002B8006046704780B500AF07484FF4005102F020
:1002C80041FC0346002B14BF00230123DBB21A466E
:1002D800024B1A7080BD00BF0008004800020020D1
:1002E80080B500AF27484FF4005102F02BFC0346BD
:1002F800002B0CBF00230123DBB2002B33D0224B91
:100308001B88002B13D0214B1B78002B05D1204BC9
:100318001B780133DAB21E4B1A701C4B00221A707C
:10032800194B00221A801B4B00221A8029E0184B17
:100338001B78002B0BD0174B1B8801339AB2154B37
:100348001A80144B1B88962B01D9012300E0002347
:10035800002B16D00E4B1B78184600F01DF80C4BDE
:1003680000221A700DE0084B1B8801339AB2064B25
:100378001A80054B1B88B3F5C87F02D9002000F00E
:100388000BF880BD0008004802020020000200208F
:10039800040200200602002080B582B000AF0346A8
:1003A800FB71FB79002B05D0012B04D100F0B6F8C6
:1003B80000BF00E000BF0837BD4680BD80B582B0F1
:1003C80000AF0346FB80FB884FF08040194603F0DE
:1003D800B5FC0837BD4680BD80B582B000AF034686
:1003E800FB80FB884FF08040194603F0B5FC0837C6
:1003F800BD4680BD80B582B000AF0346FB80FB8858
:100408004FF08040194603F0B5FC0837BD4680BD63
:1004180080B582B000AF0346FB80FB8803481946CD
:1004280003F08CFC0837BD4680BD00BF00040040C7
:1004380080B582B000AF0346FB80FB8803481946AD
:1004480003F08AFC0837BD4680BD00BF00040040A9
:1004580080B582B000AF0346FB80FB88034819468D
:1004680003F088FC0837BD4680BD00BF000400408B
:1004780080B582B000AF0346FB80FB88034819466D
:1004880003F04EFC0837BD4680BD00BF002C01407C
:1004980080B582B000AF0346FB80FB88034819464D
:1004A80003F04CFC0837BD4680BD00BF002C01405E
:1004B80080B582B000AF0346FB80FB88034819462D
:1004C80003F04AFC0837BD4680BD00BF002C014040
:1004D80080B483B000AF0346FB80FB885A11044BFD
:1004E80033F8123018460C37BD465DF8047B704768
:1004F8008844000880B483B000AF78600B46FB7076
:100508007B6800225A707B68FA781A7001231846B3
:100518000C37BD465DF8047B704700BF80B582B0DC
:1005280000AF0023FB7118E0FA790F4B53F8223023
:100538005B78002B07D0FA790B4B53F8223018461A
:1005480000F022F806E0FA79074B53F822301846F3
:1005580000F00CF8FB790133FB71FB79022BE3D92E
:100568000837BD4680BD00BF0000002080B582B0BE
:1005780000AF78607B689A787B685A70786800F07A
:1005880031F80837BD4680BD80B582B000AF7860CD
:100598007B6800225A707B681B78012B0BD0022BDA
:1005A80013D10020FFF70AFF0020FFF715FF0020F6
:1005B800FFF720FF12E00020FFF72AFF0020FFF7D7
:1005C80037FF0020FFF744FF08E00020FFF750FF47
:1005D8000020FFF75DFF0020FFF76AFF0837BD46E0
:1005E80080BD00BF80B485B000AF78607B685B7861
:1005F800002B13D07B689B781A467B689B88134432
:100608009AB27B68DB881344FB81FB89FE2B02D8F6
:10061800FB89DBB200E0FF237A6853701437BD46CC
:100628005DF8047B704700BF80B582B000AF78608A
:100638000B467B807B681B78012B34D0022B65D15D
:100648007B881846FFF744FF03467A68527802FB16
:1006580003F35B0B9BB21846FFF7B0FE7B8803F5EC
:10066800AA4355339BB21846FFF732FF03467A6810
:10067800527802FB03F35B0B9BB21846FFF7BAFEF6
:100688007B88A3F5AA43563B9BB21846FFF720FF89
:1006980003467A68527802FB03F35B0B9BB2184659
:1006A800FFF79AFE64E07B881846FFF711FF0346C0
:1006B8007A68527802FB03F35B0B9BB21846FFF78C
:1006C800A7FE7B8803F5AA4355339BB21846FFF76C
:1006D800FFFE03467A68527802FB03F35B0B9BB27A
:1006E8001846FFF7B5FE7B88A3F5AA43563B9BB295
:1006F8001846FFF7EDFE03467A68527802FB03F3CB
:100708005B0B9BB21846FFF793FE31E07B881846D7
:10071800FFF7DEFE03467A68527802FB03F35B0BB1
:100728009BB21846FFF7A4FE7B8803F5AA4355330E
:100738009BB21846FFF7CCFE03467A68527802FB54
:1007480003F35B0B9BB21846FFF7A2FE7B88A3F569
:10075800AA43563B9BB21846FFF7BAFE03467A688F
:10076800527802FB03F35B0B9BB21846FFF7A0FE1F
:100778000837BD4680BD00BF80B483B000AF786045
:100788000B46FB707B68FA789A707B6818460C37C2
:10079800BD465DF8047B704780B582B000AF7860D5
:1007A80039607B68012B08D13A684FF6FF739A428B
:1007B80003D103480021FFF7DFFF0837BD4680BD9E
:1007C8002C02002080B500AF01204FF6FF71FFF723
:1007D800E3FF80BD80B483B000AF0346FB71084BD4
:1007E80097F907205209F97901F01F01012000FA51
:1007F80001F143F822100C37BD465DF8047B7047C1
:1008080000E100E080B483B000AF0346FB71094B00
:1008180097F907205209F97901F01F01012000FA20
:1008280001F1203243F822100C37BD465DF8047BF5
:10083800704700BF00E100E080B483B000AF78608B
:100848000B46FB707B68FA785A707B68002283F845
:1008580001217B6800221A707B68002283F802213C
:100868000C37BD465DF8047B704700BF80B483B089
:1008780000AF78600B46FB707B6893F80131FF2B63
:1008880014D27B6893F801315A1CD1B27A6882F885
:1008980001117A681344FA789A707B6893F80221F8
:1008A800FB781344DAB27B6883F802210C37BD4623
:1008B8005DF8047B704700BF80B400AF044B1B8811
:1008C80001339AB2024B1A80BD465DF8047B70472B
:1008D8003202002080B58AB000AF0346FB71284B76
:1008E800FA791A70264B1B78013B032B1AD801A200
:1008F80052F823F00D090008150900081D09000821
:10090800250900084FF461437B620EE04FF416435B
:100918007B620AE04FF496437B6206E04FF416537D
:100928007B6202E04FF4E1337B627B6AFB60002369
:100938007B6100233B620C23FB614FF480533B61D6
:100948004FF48063BB6107F10C030E48194603F0AE
:1009580007FB0C480C49012203F0D8FB09480B4956
:10096800012203F0D3FB07484FF4805103F010FC39
:100978000448012103F0AEFB2837BD4680BD00BF07
:10098800300200200038014007010700050105007A
:1009980080B487B000AF786039603B689BB21B12A7
:1009A800FB603B68DBB27B617B69012202FA03F3DF
:1009B8007B61FB68012B05D17B681B687A69134052
:1009C8007B610DE0FB68022B05D17B685B687A6967
:1009D80013407B6104E07B689B687A6913407B6104
:1009E8003B681B0CBB60BB68012202FA03F3BB60C7
:1009F8007B68DB69BA681340BB607B69002B05D054
:100A0800BB68002B02D00123FB7401E00023FB74B8
:100A1800FB7C18461C37BD465DF8047B704700BF59
:100A280080B489B000AFF860B9601346FB71FB6809
:100A3800FB61BB689BB21B12BB61BB68DBB27B610D
:100A48007B69012202FA03F33B61BB69022B03D1E4
:100A5800FB690433FB6105E0BB69032B02D1FB6929
:100A68000833FB61FB79002B06D0FB69FA69116832
:100A78003A690A431A6006E0FB69FA6911683A693B
:100A8800D2430A401A602437BD465DF8047B70479C
:100A980080B582B000AF174B1B889BB2164AD35C57
:100AA800FB712520FFF7AEFE124B1B889AB2134B41
:100AB8001B889BB29A420CBF00230123DBB2002B98
:100AC8000ED00C4B1B889BB201339AB2094B1A808B
:100AD800084B1B889BB2DBB29AB2064B1A8001E026
:100AE800FFF7EAFE2520FFF775FEFB791846083761
:100AF800BD4680BD340300203402002036030020A8
:100B080080B400AF074B1B889AB2074B1B889BB277
:100B1800D31A9BB2DBB29BB21846BD465DF8047B84
:100B2800704700BF360300203403002080B400AFB4
:100B3800054B1B889BB2054AD35CDBB21846BD4601
:100B48005DF8047B704700BF3403002034020020A6
:100B580080B582B000AF0346FB71114B1B889BB276
:100B6800104AF979D1542520FFF74CFE0C4B1B880D
:100B78009BB201339AB20A4B1A80094B1B889BB26D
:100B8800DBB29AB2064B1A802520FFF723FE0648EF
:100B980006490122FFF744FF0837BD4680BD00BF64
:100BA800380300203C0300200038014007010700FB
:100BB80080B400AF074B1B889AB2074B1B889BB2C7
:100BC800D31A9BB2DBB29BB21846BD465DF8047BD4
:100BD800704700BF380300203A03002080B582B078
:100BE80000AF0346FB7100BFFFF7E2FF0346C3F502
:100BF8008072FB799A42ACBF00230123DBB2002B41
:100C0800F2D10837BD4680BD90B583B000AFFFF77D
:100C180077FF0346002B0CBF00230123DBB2002B18
:100C280000F08880454B1B78002B11D1FFF77EFF21
:100C380003463E2B14BF00230123DBB2002B05D053
:100C4800FFF726FF3D4B01221A7001E000F07CF807
:100C58003A4B1B78012B06D1FFF752FF0346022BB4
:100C680001D9012300E00023002B2BD0FFF710FF50
:100C78000346FB71FFF70CFF03461A46304B1A80F8
:100C88002F4B1B88DAB2FB791344DCB2FFF700FF65
:100C980003469C4205D12A4B1B88FF2B01D8012310
:100CA80000E00023002B08D0FB7926481946FFF7FF
:100CB800C3FD224B02221A7004E0FFF7FDFD1F4B13
:100CC80000221A701D4B1B78022B0AD1FFF718FF60
:100CD80003461A461A4B1B8801339A4201DB01234B
:100CE80000E00023002B25D006E0FFF7D1FE0346E5
:100CF80014481946FFF7BAFD124B93F801311A460A
:100D08000F4B1B889A42F0D30E4B93F80241FFF722
:100D1800BFFE03469C4214BF00230123DBB2002B15
:100D280003D0084800F068F801E0FFF7C5FD034B61
:100D380000221A700C37BD4690BD00BF3C0400204D
:100D48003E0400204004002080B500AF01E0FFF71A
:100D58009FFEFFF7D5FE0346002B06D0FFF7E6FE01
:100D680003463E2B01D0012300E00023002BEED1E7
:100D7800FFF7A2FD80BD00BF80B584B000AF7860EA
:100D88007B6893F801310533DBB21846FFF726FF7D
:100D98003E20FFF7DDFE7B685B781846FFF7D8FE3C
:100DA8007B6893F801311846FFF7D2FE7B685A78C2
:100DB8007B6893F801311344DBB21846FFF7C8FE8D
:100DC8000023FB7309E0FB7B7A6813449B78184681
:100DD800FFF7BEFEFB7B0133FB737B6893F80131A1
:100DE800FA7B9A42EFD37B6893F802311846FFF7F3
:100DF800AFFE1037BD4680BD80B582B000AF7860C9
:100E08001B480021FFF718FD7B685B78322B18D050
:100E1800322B02DC142B0FD018E0332B02D0562BC8
:100E280005D013E01348796800F0F6FC16E0114885
:100E3800796800F021FD11E00E48796800F052FD54
:100E48000CE00C48796800F09BFD07E07B685B7854
:100E5800084819460622002300F09AFC054B5B79E6
:100E6800002B02D00248FFF787FF0837BD4680BD38
:100E78003C0800203808002080B400AF064B1B68EF
:100E88005A1C054B1A60054B1B685A1C034B1A6009
:100E9800BD465DF8047B70474405002048050020E6
:100EA80080B500AF6FF0040002F070FB044802F058
:100EB80089FB012002F0B8FB012002F091FB80BD04
:100EC8004054890080B485B000AF7860144B00228C
:100ED8001A60134B1B680133124A02FB03F27B684A
:100EE80042F2283101FB03F31A440F4B9B68D31AD3
:100EF800FB6000BF0A4B1B6801330A4A02FB03F27E
:100F0800094B9B68D21AFB689A422CBF0023012325
:100F1800DBB2002BEED11437BD465DF8047B704779
:100F2800480500204054890010E000E080B500AF7B
:100F380003484FF48051012201F020FE80BD00BF1C
:100F48000004004880B500AF03484FF480510022E8
:100F580001F014FE80BD00BF0004004880B500AF5A
:100F680002480421012201F009FE80BD0004004866
:100F780080B500AF02480421002201F0FFFD80BDCA
:100F88000004004880B500AFFFF7DCFFFFF7F0FF73
:100F9800044B00221A70044B00221A80034B0022D3
:100FA8001A7080BD520500204E0500205305002010
:100FB80080B582B000AF02460B46FA807B71094BC0
:100FC800FA881A80084B7A791A70074B1A78074BF7
:100FD8001A70074B01221A70FFF7B4FF0837BD4695
:100FE80080BD00BF4E05002050050020510500209F
:100FF8005205002080B500AF2A4B1B88002B30D04B
:10100800294B1A78294B1B789A421DD3284B1B78F9
:10101800002B07D0FFF796FF254B00221A70FFF729
:101028009DFF0DE0FFF782FF214B01221A701D4B37
:101038001B889BB2013B9AB21A4B1A80FFF798FFA4
:10104800194B00221A702CE0174B1B780133DAB2C7
:10105800154B1A70144B1B78052B22D9FFF788FF04
:101068001FE0114B1B78002B10D00F4B1B78013B56
:10107800DAB20D4B1A700C4B1B78002B11D1FFF70D
:1010880055FF0C4B1A880C4B1A800AE0094B1A883A
:10109800094B1B889A4204D0FFF754FF024B0622E3
:1010A8001A7080BD4E050020510500205005002013
:1010B80052050020800500205405002080B483B02C
:1010C80000AF78607B6818460C37BD465DF8047B36
:1010D800704700BF80B483B000AF78607B681B782E
:1010E800002B0CBF00230123DBB218460C37BD468A
:1010F8005DF8047B704700BF80B483B000AF7860B0
:101108007B681B7818460C37BD465DF8047B704732
:1011180080B582B000AF786000F00AFF0837BD469E
:1011280080BD00BF80B58EB000AF7860396007F130
:101138000C03184600F0F4FC03461A467B681A7044
:101148007B681B78002B3AD107F1300207F10C03BA
:10115800104619468022002300F080FE03461A46F6
:101168007B681A707B681B78002B28D17A7B3B68D8
:101178001A703B680133BA7B1A703B680233FA7BFA
:101188001A703B6803333A7C1A703B6804337A7DE3
:101198001A703B680533BA7D1A703B680633FA7DCE
:1011A8001A703B6807333A7E1A703B6808337A7EB8
:1011B8001A7001F0ABF803461A467B681A707B6810
:1011C8001B78002B14BF00230123DBB218463837E5
:1011D800BD4680BD80B590B002AFF860B960FA71C5
:1011E800BB71144800F09CFC03461A46FB681A7051
:1011F800FB681B78002B18D1BB799BB207F1100153
:10120800FA79B868009008460A4900F0D7FD034605
:101218001A46FB681A70FB681B78002B05D101F091
:1012280075F803461A46FB681A70034B1846383798
:10123800BD4680BD5C0500205D05002080B588B0F6
:1012480000AFF860B9603B601346FB710023FB6197
:101258000023FB76FB79022B02D0052B05D009E091
:101268002B4BFB610323FB7606E02A4BFB6109232A
:10127800FB7601E0012346E03868B9682022FEF7D2
:101288007FFF0023BB7639E0BB7EFA6913441B78E5
:1012980003F00F033B763B7E032B05D03B7E072BE9
:1012A80002D03B7E0B2B01D1E2232CE000237B767E
:1012B800BB7EFA6913441B7803F01003002B03D09C
:1012C8007B7E43F040037B767A7E3B7EF868396804
:1012D800FFF780FF7861F868FFF7FCFE0346002BF4
:1012E80004D0F868FFF708FF03460CE0386879690E
:1012F8002022FEF745FFBB7E0133BB76BA7EFB7E1C
:101308009A42C1D3002318462037BD4680BD00BF8E
:101318000C0000201000002080B485B000AF786079
:10132800104BFB607B6808337B60FB681A687B683E
:101338001A607B68043B7B60FB680433FB60FB68D6
:101348001A687B681A607B68043B7B60FB6804331F
:10135800FB60FB681A687B681A601437BD465DF845
:10136800047B7047ACF7FF1F80B582B000AF786090
:1013780039607B68012B07D13A684FF6FF739A42B0
:1013880002D10348FFF79AFE0837BD4680BD00BF6B
:101398005805002080B500AF01204FF6FF71FFF718
:1013A800E3FF80BD80B582B000AF314B00221A80C8
:1013B800102002F02FF84FF4C020012102F050F85D
:1013C8004FF40010012102F087F802233B71032338
:1013D8007B710123BB710023FB714FF400433B6019
:1013E8003B464FF09040194601F018FB4FF48043FC
:1013F8003B603B464FF09040194601F00FFB02233B
:101408003B7103237B710123BB710123FB714023D3
:101418003B603B461748194601F000FB80233B60C0
:101428003B461448194601F0F9FA134B0022DA60DA
:10143800114B00225A60104B00229A600E4B00227A
:101448001A610D4B00225A610B4B00229A610A4B1C
:101458000A4A1A600A48084901F010FC08480121A4
:1014680001F070FC00F036F80837BD4680BD00BFBB
:101478008005002000040048840500203512E8108B
:101488000054004080B500AF054B064A1A60064874
:1014980001F0D2FB0448024901F0F0FB80BD00BF17
:1014A800840500203512E8100054004080B500AFD4
:1014B800054B064A1A60064801F0BEFB044802497B
:1014C80001F0DCFB80BD00BF84050020A128C360BB
:1014D8000054004080B500AF05480621042201F001
:1014E80065FB03480721042201F060FB80BD00BFB3
:1014F8000004004880B400AFBD465DF8047B704727
:1015080080B582B000AF0346FB71064B1B78FA79B1
:101518009A4204D0034BFA791A7000F005F808379C
:10152800BD4680BD1C00002080B588B000AF07F123
:101538001403184602F0AEF93B46184602F0CEFBFB
:101548004FF0804002F08CF8554802F089F8554871
:1015580002F086F8544B1B78012B09D14FF4006335
:10156800BB610023BB820023BB832023FB8208E0EE
:101578004FF40063BB610123BB820023BB8320239C
:10158800FB8207F114034FF08040194602F00CF972
:1015980007F114034248194602F006F907F114034B
:1015A8004048194602F000F90123BB800023BB60C4
:1015B8000223BB8170233B603B464FF080401946B5
:1015C80002F02EFA4FF08040082102F0FDFB3B4666
:1015D8004FF08040194602F0A3FA4FF080400821EE
:1015E80002F00EFC3B464FF08040194602F016FB15
:1015F8004FF08040082102F01FFC3B46284819465E
:1016080002F00EFA2648082102F0DEFB3B46244889
:10161800194602F085FA2248082102F0F1FB3B4600
:101628001F48194602F0FAFA1D48082102F004FC86
:101638000023BB800423FB800823FB813B46194819
:10164800194602F061F91748082102F0A1FB3B4650
:101658001448194602F0E4F91248082102F0B4FBD4
:101668003B461048194602F05BFA0E48082102F082
:10167800C7FB0C48012102F0FBFB4FF08040012121
:1016880002F022F90648012102F01EF9054801215D
:1016980002F01AF9FFF72EFF2037BD4680BD00BFC4
:1016A80000040040002C01401C00002080B582B0DE
:1016B80000AF78600B467B807B88DBB27868194680
:1016C800FFF7D4F8B7F902301B12DBB27868194675
:1016D800FFF7CCF80837BD4680BD00BF80B586B09F
:1016E80000AFF860B9601346FB710023FB750AE090
:1016F800FB7DBA6813441B78F8681946FFF7B6F8FB
:10170800FB7D0133FB75FA7DFB799A42F0D31837DC
:10171800BD4680BD80B400AF024B1846BD465DF89B
:10172800047B70475805002080B582B000AF786010
:10173800FFF7F0FF02467B681A607B681846083797
:10174800BD4680BD80B483B000AF78607B689B786D
:1017580018460C37BD465DF8047B704780B483B0EB
:1017680000AF78607B68033318460C37BD465DF8D8
:10177800047B704780B500AF044B04221A704FF009
:10178800FF300621FFF714FC80BD00BF5305002081
:1017980080B584B000AFF8607B600B46FB721346DF
:1017A800BB72FB68043318460921FFF745F8FB684C
:1017B8001A1DFB7A10461946FFF758F8FB681A1DE0
:1017C800BB7A10461946FFF751F8FB681A1D3B1DF6
:1017D800104619460422FFF781FFFFF7CBFF1037A9
:1017E800BD4680BD80B582B000AF7860FFF792FF3C
:1017F80002467B681A60074800214FF4267202F0FF
:10180800E1FD7B681B681846FFF782FC0837BD4678
:1018180080BD00BFA005002080B586B000AF78600D
:10182800396001F093FB104802F03EFB0F4B002299
:101838001A600E4B00225A600C4B00229A6000205E
:1018480001F0C2FB01233B613B6983F31088084B1D
:10185800FB60FB6883F30888064B1B687B617B6928
:1018680098471837BD4680BD0038014010E000E0B9
:101878000010002004D8FF1F80B584B000AF786046
:1018880039607B68043318465621FEF7D5FF7B681C
:10189800043318461E21FEF7E9FF7B680433184617
:1018A8000021FFF703FF7B68043318460021FEF789
:1018B800DDFF7B68043318460021FFF7F7FE00239D
:1018C800FB7308E07B68043318460021FEF7CEFF5F
:1018D800FB7B0133FB73FB7B0B2BF3D91037BD4626
:1018E80080BD00BF80B58AB000AF786039607B6882
:1018F800043318461421FEF79FFF7B681A6807F126
:101908000C0310461946FFF70DFC034683F001034C
:10191800DBB2002B06D007F10C0318460021092280
:1019280002F050FD7B681A1D07F10C03104619469A
:101938000922FFF7D3FE07F118031846FFF7ECFC5E
:101948007B681A1D07F11803104619460C22FFF789
:10195800C5FE002387F827300AE07B680433184661
:101968000021FEF783FF97F82730013387F82730E7
:1019780097F827302F2BF0D92837BD4680BD00BFF8
:1019880090B58FB000AF78603960FFF7C3FE786319
:101998003B683B63386BFFF7E1FE0446386BFFF7A3
:1019A800D1FE03461A4607F10C03786B2146FFF770
:1019B80045FC034687F82F3097F82F30002B11D1BC
:1019C8007B681A1D3B685B7810461946FEF734FFA2
:1019D8007B681A1D07F10C03104619462022FFF7F1
:1019E8007DFE08E03B685A7897F82F3078681146F2
:1019F8000422FFF7CDFE3C37BD4690BD80B582B0CE
:101A080000AF786039607B68012B07D13A684FF6E0
:101A1800FF739A4202D10348FFF786FE0837BD4696
:101A280080BD00BF3808002080B500AF01204FF608
:101A3800FF71FFF7E3FF80BD80B489B000AF0346B4
:101A4800B9607A60FB810023BB8348F205033B83BE
:101A58000023FB8326E00123FB761DE0FB8BBA689D
:101A680013441A78FB7E1340DBB2002B01D001230C
:101A780000E00023FB75BB8BDB13BB75BB8B5B00E6
:101A8800BB83FA7DBB7D9A4203D0BA8B3B8B534014
:101A9800BB83FB7E5B00FB76FB7E002BDED1FB8BE2
:101AA8000133FB83FA8BFB899A42D4D3BB8BDAB21E
:101AB8007B681A707B680133BA8B1212D2B21A7023
:101AC8002437BD465DF8047B704700BF80B584B0FD
:101AD80000AF78607B681B78FB73FB7B023BFB7372
:101AE800FB7B9AB207F10C03104679681A46FFF798
:101AF800A3FF3A7BFB7B79680B441B789A4209D198
:101B08007A7BFB7B013379680B441B789A4201D1BD
:101B1800002300E0E52318461037BD4680BD00BF0E
:101B280080B584B000AF786000F002FC0346FB7318
:101B3800FB7B002B01D0FB7B2CE00420796800F0B4
:101B48008DFB0346FB73FB7B002B01D0FB7B21E065
:101B58007B681B78042B02D0E423FB7313E07B68BB
:101B680001331B78112B02D0F023FB730BE07B6849
:101B780002331B78332B04D17B6803331B78432B48
:101B880001D0E523FB73FB7B002B02D04620FFF737
:101B980099F9FB7B18461037BD4680BD80B584B0E7
:101BA80000AF03463960FB71FB791846396800F0CD
:101BB8009FFB0346FB73FB7B002B01D1FB7B0CE0F7
:101BC80000F0A4FB3868FFF7ABFF0346FB73FB7B11
:101BD800002B01D0FB7B00E0E82318461037BD46F8
:101BE80080BD00BF80B588B000AFF8607A600A4653
:101BF800FA72BB72E023FB77FB681B78FB76FB7EEF
:101C0800023BBB7697F828309BB21A465201D21A8B
:101C180092001344DB009BB225333B83BB7E9AB210
:101C2800BB7EF9680B441046F9681A46FFF704FFB3
:101C38000223BB77AFE0FB7E1846F96800F0B8FBDB
:101C48000346FB77FB7F002B0FD0FB7A1846796899
:101C5800FFF7A4FF0346E72B14BF00230123DBB2E1
:101C6800002B01D0FB7FA5E095E0BB7A1846FFF773
:101C780029F902237B7783E000233B7707E03B7F4A
:101C88007A68134400221A703B7F01333B773A7F0E
:101C9800FB7A9A42F3D33B8BBB82FB7A184679686E
:101CA80000F0DCFA0346FB77BB8A9BB2253B9BB26C
:101CB800BB82BB8A9BB2252B04D9FB7FE72B01D1C2
:101CC800012300E00023002BE7D1FB7FE72B0FD196
:101CD800FB7A18467968FFF761FF0346E72B14BFC4
:101CE80000230123DBB2002B01D0FB7F62E052E02E
:101CF800FB7FE42B10D1FB7A18467968FFF74EFF7B
:101D08000346FB75FB7D002B00D139E0FB7DE82BFA
:101D180000D140E0FB7F4DE07868FFF7D7FE03462F
:101D2800FB77FB7F002B1AD17B681B78042B01D92A
:101D3800FB7F3FE07B685B78BB75BB7D032B01D1E4
:101D4800D22337E0BB7D0F2B01D1D32332E0BB7DFB
:101D5800FF2B02D1D423FB771DE0FB7F2AE0FB7A1F
:101D680018467968FFF71AFF0346FB75FB7D002BC1
:101D780000D105E0FB7DE82B00D10CE0FB7F19E0EA
:101D88007B7F5A1E7A77002B0CBF00230123DBB21E
:101D9800002B7FF471AFBB7F5A1EBA77002B04D09B
:101DA800FB7F002B01D0012300E00023002B7FF4F0
:101DB80042AFFB7F18462037BD4680BD80B586B050
:101DC80002AFF860B960FA71BB80FB68002B0FD0D6
:101DD800BB68002B0CD0FB7923F07703002B07D1CD
:101DE800FB7903F00103002B04D1BB69002B01D15F
:101DF800E2232EE0FB6807221A70FB6801330822F1
:101E08001A70FB680233FA791A70FB680333BA88D0
:101E1800D2B21A70FB680433BA88120A92B2D2B2EC
:101E28001A70FB7903F00103002B09D1FB68053315
:101E38001846B9692022FEF7A3F9FB6827221A7011
:101E480018230093F8682321BA680B23FFF7CAFE0A
:101E5800034618461037BD4680BD00BF80B588B020
:101E680002AFF860B960FA71BB80FB68002B0ED036
:101E7800BB68002B0BD0FB7923F08303002B06D122
:101E8800FB795BB2002B04DAFB79012B01D1E22349
:101E980049E0BB889B08BB80FB7903F00303002B58
:101EA80004D1BB881F2B15D9E2233CE0FB7903F052
:101EB8000303012B04D1BB880F2B0BD9E22332E09B
:101EC800FB7903F00303022B04D1BB887F2B01D9D4
:101ED800E22328E0FB6807221A70FB68013302221C
:101EE8001A70FB680233FA791A70FB680333BA88F0
:101EF800D2B202F07F02D2B21A70FB680433002219
:101F08001A70FB795BB2002B01DA232300E0072368
:101F1800FB75FB7D04220092F8681946BA68002315
:101F2800FFF760FE034618461837BD4680BD00BF60
:101F380080B400AF034B64221A70BD465DF8047B81
:101F4800704700BF4009002080B584B002AF0B463F
:101F58003A600246FA71BB71BB79002B56D1894BA6
:101F68001B785B009BB24FF40052009286481946DA
:101F780001224FF0007300F001FF844B42F210720F
:101F88001A600DE0814B1B68591E804A1160002BB6
:101F980014BF00230123DBB2002B01D0E723ECE0C0
:101FA8007948022100F032FF0346002B14BF0023BA
:101FB8000123DBB2002BE5D1FB797348194600F009
:101FC80009FF724B42F210721A600DE06F4B1B68EA
:101FD800591E6E4A1160002B14BF00230123DBB287
:101FE800002B01D0E623C8E06748202100F00EFF4F
:101FF8000346002B14BF00230123DBB2002BE5D1DD
:102008006148202100F022FF0023B6E05D4B1B78D9
:102018005B009BB24FF4005200925B4819460122C4
:102028004FF0807300F0AAFE584B42F210721A600B
:102038000DE0564B1B68591E544A1160002B14BF03
:1020480000230123DBB2002B01D0E72395E04E48A3
:10205800022100F0DBFE0346002B14BF00230123FE
:10206800DBB2002BE5D1FB794748194600F0B2FEF8
:10207800464B42F210721A600DE0444B1B68591E21
:10208800424A1160002B14BF00230123DBB2002B4E
:1020980001D0E72371E03C48802100F0B7FE0346F9
:1020A800002B14BF00230123DBB2002BE5D1354BF5
:1020B8001B785B009AB2BB79002100913248114627
:1020C8001A464FF0007300F059FE304B42F210727E
:1020D8001A600DE02D4B1B68591E2C4A1160002B0D
:1020E80014BF00230123DBB2002B01D0E72344E017
:1020F8002548022100F08AFE0346002B14BF002366
:102108000123DBB2002BE5D13B685A1C3A601B78EF
:102118001D48194600F05EFEBB79013BBB71BB79D7
:10212800002B14BF00230123DBB2002B05D000BF16
:10213800164B42F210721A600EE0C6E7134B1B688A
:10214800591E124A1160002B14BF00230123DBB271
:10215800002B01D0E72310E00B48202100F056FEA9
:102168000346002B14BF00230123DBB2002BE5D16B
:102178000548202100F06AFE002318460837BD46AE
:1021880080BD00BF4009002000540040200000200E
:1021980080B584B002AF78602D4B1B785B009BB292
:1021A8004FF4105200922B48194601224FF0007349
:1021B80000F0E4FD284B42F210721A600DE0264B45
:1021C8001B68591E244A1160002B14BF00230123E9
:1021D800DBB2002B01D0E72336E01E48042100F0D3
:1021E80015FE0346002B14BF00230123DBB2002B8E
:1021F800E5D1184800F0FCFD03461A467B681A70C2
:10220800154B42F210721A600DE0134B1B68591EF1
:10221800114A1160002B14BF00230123DBB2002BED
:1022280001D0E62310E00B48202100F0EFFD034623
:10223800002B14BF00230123DBB2002BE5D1054896
:10224800202100F003FE002318460837BD4680BD54
:1022580040090020005400402000002080B584B0D0
:1022680000AF03463960FB7107F10E031846FFF70C
:102278008FFF0346FB73FB7B002B01D0FB7B28E021
:102288003B685A1C3A60BA7B1A70BB7B032B03D994
:10229800BB7BFA799A4201D2E4231AE00CE03B684E
:1022A8005A1C3A601846FFF773FF0346FB73FB7B23
:1022B800002B01D0FB7B0CE0BB7B013BDBB2BB738B
:1022C800BB7B002B0CBF00230123DBB2002BE6D124
:1022D800002318461037BD4680BD00BF80B500AF4B
:1022E800002000210022FFF72FFE0346184680BD7C
:1022F80080B582B000AF03463960FB71FFF7EEFF8F
:10230800034618460837BD4680BD00BF80B582B079
:1023180000AF012000210022FFF716FE0346FB71E3
:102328000120FEF7CFFDFB7918460837BD4680BD72
:1023380080B582B002AFFFF7B9F84FF4105300939D
:102348001948002101224FF0007300F017FD174BC8
:1023580042F210721A600DE0144B1B68591E134AA2
:102368001160002B14BF00230123DBB2002B01D026
:10237800E62315E00C48102100F048FD0346002B29
:1023880014BF00230123DBB2002BE5D1064810213E
:1023980000F05CFDFFF776F80320FEF793FD0023BD
:1023A8001846BD4680BD00BF0054004020000020F4
:1023B80080B582B000AF03463960FB71FB7903201A
:1023C80019463A68FFF7C0FD034618460837BD4668
:1023D80080BD00BF80B400AF044BDB6803F4E0634A
:1023E8001B0A1846BD465DF8047B704700ED00E007
:1023F80080B483B000AF03463960FB7197F90730AA
:10240800002B0BDA0D49FB7903F00F03043B3A6804
:10241800D2B21201D2B20B441A7609E0084997F9F0
:1024280007303A68D2B21201D2B20B4483F80023C3
:102438000C37BD465DF8047B704700BF00ED00E037
:1024480000E100E080B489B000AFF860B9607A605C
:10245800FB6803F00703FB61FB69C3F10703042B67
:1024680028BF0423BB61FB690433062B02D9FB692F
:10247800033B00E000237B61BB69012202FA03F3FE
:10248800013B1A46BB681A407B699A407B69012167
:1024980001FA03F3013B19467B680B4013431846C6
:1024A8002437BD465DF8047B704700BF80B582B015
:1024B80000AF4FF4C06000F0D7FCFFF78BFF034676
:1024C800184600210022FFF7BDFF03464FF0FF30FA
:1024D8001946FFF78DFF25233B7100237B710023ED
:1024E800BB710123FB713B1D184600F0CFFC083778
:1024F800BD4680BD80B582B000AF4FF400300121E9
:1025080000F0AEFF4FF48040012100F0C7FF4FF00C
:1025180090400921072200F049FB4FF090400A2122
:10252800072200F043FB4FF400733B6002233B712A
:1025380003237B710023BB710023FB713B464FF0E3
:102548009040194600F06AFA4FF480633B6001231B
:10255800BB710123FB713B464FF09040194600F0D8
:102568005DFA4FF48020012100F07AFF4FF4805388
:102578003B6001233B710023BB7102237B71012364
:10258800FB713B467848194600F048FA4FF4802022
:10259800012100F065FF04233B6001233B71002308
:1025A800BB7102237B710123FB713B466E481946C0
:1025B80000F034FA4FF40020012100F051FF4FF4ED
:1025C80000533B6000233B7102237B710123BB71E5
:1025D8000123FB713B466548194600F01FFA4FF48A
:1025E8008020012100F03CFF4FF480633B60012311
:1025F8003B710023BB7102237B710223FB713B46B5
:102608005948194600F00AFA4FF40030012100F049
:1026180027FF4FF090400121012200F0C7FA4FF048
:1026280090400221012200F0C1FA4FF090400321AE
:10263800012200F0BBFA02233B7103237B710023C4
:10264800BB710123FB7102233B603B464FF0904076
:10265800194600F0E3F904233B603B464FF09040F5
:10266800194600F0DBF908233B603B464FF09040E9
:10267800194600F0D3F94FF4C020012100F0F0FE14
:102688004FF090400421022200F090FA36480021D1
:10269800022200F08BFA34480121022200F086FA67
:1026A80002233B7103237B710023BB710123FB7160
:1026B80010233B603B464FF09040194600F0AEF9BE
:1026C80001233B603B462848194600F0A7F902233E
:1026D8003B603B462448194600F0A0F94FF480209F
:1026E800012100F0BDFE20480D21062200F05EFA0F
:1026F8001D480E21062200F059FA1B480F2104221A
:1027080000F054FA02233B7103237B710023BB7151
:102718000123FB714FF400533B603B4612481946B6
:1027280000F07CF94FF480433B603B460E48194665
:1027380000F074F94FF400433B603B460A481946E1
:1027480000F06CF94FF40060012100F0A7FE0120B1
:10275800012100F0C1FE0220012100F0BDFEFFF7BB
:10276800A5FE0837BD4680BD0004004800080048A3
:1027780080B500AF034B02221A700A200421FEF72D
:1027880017FC80BD5305002080B500AF0D4B1B889A
:102798001A46531C99B20B4B19800B4BA3FB02131F
:1027A800D9080B469B000B445B00D31A9BB2DAB2E4
:1027B800064B1A70054B1B781A46054B53F8223006
:1027C800984780BD42090020CDCCCCCC4C050020D8
:1027D8006044000880B500AF03484FF480610122CF
:1027E80000F0CCF980BD00BF0004004880B582B07D
:1027F80000AF78600B46FB707B68FA789A7078684F
:10280800FDF7F0FE0837BD4680BD00BF80B582B039
:1028180000AFFFF76FFEFEF743FBFEF785FEFEF7FE
:10282800C1FD1748FEF7DEFF0020FEF753F8FEF75C
:10283800A9FB0120FEF764FEFFF7CCFFFDF73AFD88
:102848000023FB7113E0FA790E4B53F82220FB7931
:1028580010461946FDF74EFEFA790A4B53F8223016
:1028680018467F21FFF7C2FFFB790133FB71FB7923
:10287800022BE8D9FFF77CFF0837BD4680BD00BFB3
:10288800380800200000002080B582B000AF02F0B8
:10289800F7FD7860FFF778FF02F0F2FD02467B68EB
:1028A800D31A3B603B68B3F5487FF5D30837BD467C
:1028B80080BD00BF80B500AF00F060F8FFF7A6FF4D
:1028C800FFF7E2FFFCE700BF80B500AFFEF792FB21
:1028D80080BD00BF80B500AFFEF796F980BD00BF90
:1028E80080B582B000AF0E4B1B6803F596720C4B97
:1028F8001A600023FB710DE0FA790A4B53F8222085
:10290800074B1B689BB210461946FDF78DFEFB79F5
:102918000133FB71FB79022BEED90837BD4680BD28
:10292800440900200000002080B500AFFDF7D8FC66
:1029380080BD00BF80B400AFBD465DF8047B704722
:1029480080B400AFBD465DF8047B704780B400AF2B
:10295800BD465DF8047B704780B400AFBD465DF8A6
:10296800047B704780B400AFBD465DF8047B7047B8
:1029780080B400AFBD465DF8047B704780B485B075
:1029880000AF0E4B0E4A9A600E4BFB600C4BBB60BF
:10299800FB6803F5C4637B6007E0BB681A1DBA6077
:1029A800FA68111DF96012681A60FA687B689A4221
:1029B800F3D31437BD465DF8047B704700ED00E0A3
:1029C800000A00200000000880B400AFFEE700BF46
:1029D80080B400AFFEE700BF80B400AFFEE700BFE1
:1029E80080B582B000AF0B4A0B4BD31A9B103B60EB
:1029F80000237B6007E0084B7A6853F82230984739
:102A08007B6801337B607A683B689A42F3D3083766
:102A1800BD4680BDD8540008CC54000880B487B0A7
:102A280000AF7860396000237B6100233B6100239D
:102A3800FB6000237B617CE07B69012202FA03F3DF
:102A48003B613B681A683B691340FB60FA683B6965
:102A58009A426BD13B681B79012B03D03B681B79E9
:102A6800022B34D17B689A687B695B00032101FAE9
:102A780003F3DB431A407B689A607B689A683B687B
:102A88005B7919467B695B0001FA03F31A437B689B
:102A98009A607B689B889AB27B699BB2012101FA94
:102AA80003F39BB2DB439BB213409AB27B689A80D4
:102AB8007B689B889AB23B689B7919467B699BB275
:102AC80001FA03F39BB213439AB27B689A807B683E
:102AD8001A687B695B00032101FA03F3DB431A40A0
:102AE8007B681A607B681A683B681B7919467B69A2
:102AF8005B0001FA03F31A437B681A607B68DA68A3
:102B08007B699BB25B00032101FA03F3DB431A40A4
:102B18007B68DA607B68DA683B68DB7919467B6931
:102B28005B0001FA03F31A437B68DA607B690133BF
:102B38007B617B690F2B7FF67FAF1C37BD465DF845
:102B4800047B704780B485B000AF78600B467B800B
:102B58000023FB737B681B8A9AB27B8813409BB265
:102B6800002B02D00123FB7301E00023FB73FB7BE6
:102B780018461437BD465DF8047B704780B483B0AF
:102B880000AF786013460A467A807B707B78002B0A
:102B980003D07A887B689A6102E07B687A881A8514
:102BA8000C37BD465DF8047B704700BF80B485B024
:102BB80000AF786013460A467A807B700023FB607A
:102BC8000023BB607A787B8803F007039B0002FA36
:102BD80003F3FB607B88DB089BB21A467B88DB0823
:102BE8009BB219467B68083153F821107B8803F0A3
:102BF80007039B000F2000FA03F3DB4319407B68AF
:102C0800083243F822107B88DB089BB21A467B689F
:102C1800083253F82220FB681343BB607B88DB082B
:102C28009BB21A467B680832B96843F822101437F9
:102C3800BD465DF8047B704780B582B000AF786010
:102C48007A680D4B9A420AD14FF40010012100F026
:102C58007FFC4FF40010002100F07AFC09E04FF4EB
:102C68008000012100F074FC4FF48000002100F086
:102C78006FFC0837BD4680BD0054004080B485B065
:102C880000AF786039600023FB607B681B6823F025
:102C980001027B681A607B681B68FB60FA68284B36
:102CA8001340FB603B685A683B689B681B021343F0
:102CB800FA681343FB607B68FA681A603B681B6814
:102CC80023F070627B681A617B681B6843F001021D
:102CD8007B681A600023FB607B68FA689A607B68EF
:102CE800FA68DA603B689A693B681B691343FB60C2
:102CF8007B68FA689A607B689B6843F400427B684B
:102D08009A603B68DB68FB607B681A68FB681A435B
:102D18007B681A607B685B68FB60FB6823F078431C
:102D280023F40043FB603B685B69FA681343FB606C
:102D38007B68FA685A601437BD465DF8047B7047B3
:102D4800FFE0CF0080B483B000AF78600B46FB7023
:102D5800FB78002B06D07B681B6843F001027B6878
:102D68001A6005E07B681B6823F001027B681A6023
:102D78000C37BD465DF8047B704700BF80B487B050
:102D880000AFF8607B600B467B8113467B720023A3
:102D98007B61FB685B687B617A690D4B13407B61E3
:102DA8007B89C3F309027B7A1B0403F47F031A436C
:102DB8007B681A433B6A13437A6913437B61FB6858
:102DC8007A695A601C37BD465DF8047B704700BFBE
:102DD800009800FC80B483B000AF78600B46FB70AD
:102DE800FA787B689A620C37BD465DF8047B7047B9
:102DF80080B483B000AF78607B685B6ADBB218464A
:102E08000C37BD465DF8047B704700BF80B485B0C1
:102E180000AF786039600023BB600023FB737B68D8
:102E28009B69BB60BA683B681340BB60BB68002BFA
:102E380002D00123FB7301E00023FB73FB7B1846E0
:102E48001437BD465DF8047B704700BF80B483B07B
:102E580000AF786039607B683A68DA610C37BD4644
:102E68005DF8047B704700BF80B483B000AF786022
:102E7800054A7B6843F0BF6343F40033D3600C37E3
:102E8800BD465DF8047B704700ED00E080B487B074
:102E980000AF786000237B6100233B610F23FB6058
:102EA8007B68DB78002B38D0264BDB68DB4303F4E8
:102EB800E0631B0A7B617B69C3F104033B617B69A7
:102EC800FA6822FA03F3FB607B685B781A463B6971
:102ED80002FA03F37B617B689B781A46FB68134010
:102EE8007A6913437B617B691B017B6116497B68A7
:102EF8001B787A69D2B20B4483F80023124B7A68A4
:102F080012785209D2B27968097801F01F010120BC
:102F180000FA01F143F822100EE00B4B7A681278A0
:102F28005209D2B27968097801F01F01012000FA2C
:102F380001F1203243F822101C37BD465DF8047BAE
:102F4800704700BF00ED00E000E100E080B400AF92
:102F58001A4B1A4A126842F001021A60174A174BB4
:102F68005968174B0B405360144A144B1B6823F0E5
:102F7800847323F480331360104B104A126822F4D0
:102F880080221A600D4B0D4A526822F4FE025A60E4
:102F98000A4A0A4BDB6A23F47F5323F03F03D362C8
:102FA800064A064B196B074B0B401363034B002271
:102FB8009A60BD465DF8047B704700BF0010024070
:102FC80000C0FFF8CCFC000F80B485B000AF78607B
:102FD8000023FB60094B5B68FB60FB6823F003037D
:102FE800FB60FA687B681343FB60044BFA685A601D
:102FF8001437BD465DF8047B704700BF00100240DF
:1030080080B48BB000AF786000233B620023FB6183
:103018000023BB6100237B6100233B6100237B62AB
:103028000023FB600023BB60924B5B6803F00C033A
:103038003B623B6A042B07D0082B09D0002B30D108
:103048007B688D4A1A6030E07B688B4A1A602CE0F6
:10305800884B5B6803F47013FB61864B5B6803F471
:103068008033BB61FB699B0C0233FB61BB69002B9E
:1030780005D1FB69814A02FB03F37B620DE07D4BBE
:10308800DB6A03F00F0301337B617B4A7B69B2FB88
:10309800F3F3FA6902FB03F37B627B687A6A1A60CE
:1030A80003E07B68744A1A6000BF724B5B6803F0E8
:1030B800F0033B623B6A1B093B62714A3B6A13445B
:1030C8001B78DBB2BB607B681A68BB68DA407B6838
:1030D8005A60684B5B6803F4E0633B623B6A1B0A17
:1030E8003B62674A3B6A13441B78DBB23B617B68EF
:1030F8005A683B69DA407B689A605E4B5B6803F408
:1031080060533B623B6ADB0A3B625D4A3B6A13449D
:103118001B78DBB2FB607B685A68FB68DA407B6827
:10312800DA60544BDB6A03F4F8733B623B6A1B09B1
:103138003B62544B3A6A33F812309BB23B613B69AD
:1031480003F01003002B06D07A6A3B69B2FBF3F256
:103158007B681A6103E07B681A687B681A61454BD3
:10316800DB6A03F478533B623B6A5B0A3B62454B7C
:103178003A6A33F812309BB23B613B6903F01003A3
:10318800002B06D07A6A3B69B2FBF3F27B685A617E
:1031980003E07B681A687B685A61364B1B6B03F047
:1031A8001003002B03D17B68334A9A6103E07B68E4
:1031B8001A687B689A612F4B1B6B03F02003002B66
:1031C80003D17B682C4ADA6103E07B681A687B6864
:1031D800DA61284B1B6B03F48073002B0DD07B68DE
:1031E8001A687B6A9A4208D1FA68BB689A4204D185
:1031F8007B6A5A007B681A6203E07B68DA687B683E
:103208001A621C4B1B6B03F40073002B0DD07B68F8
:103218001A687B6A9A4208D1FA68BB689A4204D154
:103228007B6A5A007B685A6203E07B68DA687B68CD
:103238005A62104B1B6B03F00303002B04D17B680D
:10324800DA687B689A6228E00A4B1B6B03F0030379
:10325800012B04D17B681A687B689A621DE0054BD4
:103268001B6B03F00303022B0ED17B684FF4004263
:103278009A6212E00010024000127A0000093D0034
:103288002400002034000020604B1B6B03F0030374
:10329800032B02D17B685E4A9A625C4B1B6B03F47A
:1032A8004033002B04D17B689A687B68DA6221E09E
:1032B800564B1B6B03F44033B3F5803F04D17B6856
:1032C8001A687B68DA6215E0504B1B6B03F44033D5
:1032D800B3F5003F04D17B684FF40042DA6209E09D
:1032E8004A4B1B6B03F44033B3F5403F02D17B6874
:1032F800474ADA62454B1B6B03F44023002B04D189
:103308007B689A687B681A6321E0404B1B6B03F467
:103318004023B3F5802F04D17B681A687B681A6351
:1033280015E03A4B1B6B03F44023B3F5002F04D18F
:103338007B684FF400421A6309E0344B1B6B03F4BB
:103348004023B3F5402F02D17B68314A1A632F4BD3
:103358001B6B03F44013002B04D17B689A687B68CD
:103368005A6321E0294B1B6B03F44013B3F5801F0C
:1033780004D17B681A687B685A6315E0234B1B6B82
:1033880003F44013B3F5001F04D17B684FF40042E7
:103398005A6309E01D4B1B6B03F44013B3F5401F40
:1033A80002D17B681A4A5A63184B1B6B03F440031B
:1033B800002B04D17B689A687B689A6321E0134BE1
:1033C8001B6B03F44003B3F5800F04D17B681A68C4
:1033D8007B689A6315E00D4B1B6B03F44003B3F550
:1033E800000F04D17B684FF400429A6309E0074B51
:1033F8001B6B03F44003B3F5400F02D17B68044A0A
:103408009A632C37BD465DF8047B70470010024074
:1034180000127A0080B485B000AF78600023FB60AA
:103428007B681B0FFB60FB68002B06D00B4B0B4A1D
:10343800126B22F020021A6305E0084B074A126B50
:1034480022F010021A63054B044A116B7A680A438A
:103458001A631437BD465DF8047B704700100240BC
:1034680080B483B000AF78600B46FB70FB78002B0C
:1034780006D0094B084A51697A680A435A6106E03E
:10348800054B054A51697A68D2430A405A610C379C
:10349800BD465DF8047B70470010024080B483B0DD
:1034A80000AF78600B46FB70FB78002B06D0094B09
:1034B800084A91697A680A439A6106E0054B054A09
:1034C80091697A68D2430A409A610C37BD465DF823
:1034D800047B70470010024080B483B000AF78606E
:1034E8000B46FB70FB78002B06D0094B084AD169C4
:1034F8007A680A43DA6106E0054B054AD1697A68B9
:10350800D2430A40DA610C37BD465DF8047B704748
:103518000010024080B483B000AF78600B46FB70A7
:10352800FB78002B06D0094B084AD1687A680A4311
:10353800DA6006E0054B054AD1687A68D2430A404A
:10354800DA600C37BD465DF8047B70470010024016
:1035580080B483B000AF78600B46FB70FB78002B1B
:1035680006D0094B084A11697A680A431A6106E0CD
:10357800054B054A11697A68D2430A401A610C372B
:10358800BD465DF8047B70470010024080B483B0EC
:1035980000AF78607B68042B06D1094B084A126893
:1035A80042F004021A6005E0054B054A126822F051
:1035B80004021A600C37BD465DF8047B704700BFF3
:1035C80010E000E080B483B000AF7860034B7A6805
:1035D8005A600C37BD465DF8047B704710E000E088
:1035E80080B483B000AF78607B68012B06D10D4BA7
:1035F8000C4A126842F001021A600DE07B6813F170
:10360800020F06D1074B074A126822F001021A601E
:1036180002E0044B00229A600C37BD465DF8047B3B
:10362800704700BF10E000E080B483B000AF0346ED
:10363800FB71FB79002B06D0084B084A126842F050
:1036480002021A6005E0054B044A126822F00202E1
:103658001A600C37BD465DF8047B704710E000E047
:1036680080B582B000AF78607A68464B9A420AD13A
:103678004FF400600121FFF74DFF4FF40060002177
:10368800FFF748FF7BE07B68B3F1804F08D101204A
:103698000121FFF75DFF01200021FFF759FF6EE0D0
:1036A8007A68394B9A4208D102200121FFF750FF6E
:1036B80002200021FFF74CFF61E07A68334B9A4201
:1036C80008D104200121FFF743FF04200021FFF760
:1036D8003FFF54E07A682E4B9A4208D1102001210E
:1036E800FFF736FF10200021FFF732FF47E07A6826
:1036F800284B9A4208D120200121FFF729FF2020DA
:103708000021FFF725FF3AE07A68234B9A420AD155
:103718004FF400500121FFF7FDFE4FF40050002147
:10372800FFF7F8FE2BE07A681C4B9A420AD14FF457
:1037380080300121FFF7EEFE4FF480300021FFF7C3
:10374800E9FE1CE07A68164B9A420AD14FF4003021
:103758000121FFF7DFFE4FF400300021FFF7DAFE0A
:103768000DE07A680F4B9A4209D14FF4802001216D
:10377800FFF7D0FE4FF480200021FFF7CBFE08377B
:10378800BD4680BD002C01400004004000080040F8
:103798000010004000140040003401400040014087
:1037A800004401400048014080B485B000AF786013
:1037B80039600023FB817B681B88FB817A682C4B6E
:1037C8009A420FD07A682B4B9A420BD07B68B3F1A0
:1037D800804F07D07A68284B9A4203D07A68274BE3
:1037E8009A4208D1FB8923F07003FB813B685A8811
:1037F800FB891343FB817A68214B9A420CD07A6883
:10380800204B9A4208D0FB8923F44073FB813B6824
:103818001A89FB891343FB817B68FA891A803B6804
:103828005A687B68DA623B681A887B681A857A6806
:103838000F4B9A420FD07A680E4B9A420BD07A6897
:10384800114B9A4207D07A68104B9A4203D07A6893
:103858000F4B9A4204D13B689B7A1A467B681A86BA
:103868007B6801225A611437BD465DF8047B7047B6
:10387800002C0140003401400004004000080040D2
:103888000010004000140040004001400044014086
:103898000048014080B483B000AF78607B684FF087
:1038A800FF325A607B6800221A807B6800221A81E6
:1038B8007B6800225A807B6800229A720C37BD46CA
:1038C8005DF8047B704700BF80B483B000AF7860B8
:1038D8000B46FB70FB78002B08D07B681B889BB2DB
:1038E80043F001039AB27B681A8007E07B681B8863
:1038F8009BB223F001039AB27B681A800C37BD464D
:103908005DF8047B704700BF80B487B000AF786073
:1039180039600023FB6000237B6100233B617B68E7
:103928001B6A23F001027B681A627B681B6A7B6151
:103938007B685B683B617B689B69FB60FB6823F481
:10394800803323F07003FB60FB6823F00303FB6004
:103958003B681B68FA681343FB607B6923F002032A
:103968007B613B689B897A6913437B613B689B88D1
:103978007A6913437B617A68244B9A420FD07A683C
:10398800234B9A420BD07A68224B9A4207D07A6826
:10399800214B9A4203D07A68204B9A4223D17B6903
:1039A80023F008037B613B68DB897A6913437B61F9
:1039B8007B6923F004037B613B68DB887A691343E6
:1039C8007B613B6923F480733B613B6923F400739B
:1039D8003B613B681B8A3A6913433B613B685B8ADE
:1039E8003A6913433B617B683A695A607B68FA68B5
:1039F8009A613B689A687B685A637B687A691A623D
:103A08001C37BD465DF8047B704700BF002C0140A1
:103A1800003401400040014000440140004801409A
:103A280080B487B000AF786039600023FB60002362
:103A38007B6100233B617B681B6A23F010027B6873
:103A48001A627B681B6A7B617B685B683B617B6889
:103A58009B69FB60FB6823F0807323F4E043FB6001
:103A6800FB6823F44073FB603B681B681B02FA6821
:103A78001343FB607B6923F020037B613B689B89D0
:103A88001B017A6913437B613B689B881B017A6938
:103A980013437B617A68204B9A4203D07A681F4BA4
:103AA8009A4227D17B6923F080037B613B68DB89DD
:103AB8001B017A6913437B617B6923F040037B61B7
:103AC8003B68DB881B017A6913437B613B6923F4FC
:103AD80080633B613B6923F400633B613B681B8A5D
:103AE8009B003A6913433B613B685B8A9B003A69D8
:103AF80013433B617B683A695A607B68FA689A614C
:103B08003B689A687B689A637B687A691A621C3793
:103B1800BD465DF8047B7047002C0140003401402D
:103B280080B487B000AF786039600023FB60002361
:103B38007B6100233B617B681B6A23F480727B688E
:103B48001A627B681B6A7B617B685B683B617B6888
:103B5800DB69FB60FB6823F07003FB60FB6823F004
:103B68000303FB603B681B68FA681343FB607B69CF
:103B780023F400737B613B689B891B027A691343BA
:103B88007B613B689B881B027A6913437B617A6877
:103B9800204B9A4203D07A681F4B9A4227D17B69FF
:103BA80023F400637B613B68DB891B027A6913435A
:103BB8007B617B6923F480637B613B68DB881B0244
:103BC8007A6913437B613B6923F480533B613B690A
:103BD80023F400533B613B681B8A1B013A6913437A
:103BE8003B613B685B8A1B013A6913433B617B6815
:103BF8003A695A607B68FA68DA613B689A687B6858
:103C0800DA637B687A691A621C37BD465DF8047B03
:103C1800704700BF002C01400034014080B487B0D9
:103C280000AF7860396000233B610023FB6000230C
:103C38007B617B681B6A23F480527B681A627B680D
:103C48001B6AFB607B685B687B617B68DB693B6147
:103C58003B6923F4E0433B613B6923F440733B61D8
:103C68003B681B681B023A6913433B61FB6823F4FA
:103C78000053FB603B689B891B03FA681343FB6096
:103C88003B689B881B03FA681343FB607A68114BF7
:103C98009A4203D07A68104B9A4209D17B6923F47F
:103CA80080437B613B681B8A9B017A6913437B6174
:103CB8007B687A695A607B683A69DA613B689A6816
:103CC8007B681A647B68FA681A621C37BD465DF81F
:103CD800047B7047002C01400034014080B483B05D
:103CE80000AF78607B6800221A607B6800229A80A7
:103CF8007B680022DA807B6800229A607B68002259
:103D08009A817B680022DA817B6800221A827B68AC
:103D180000225A820C37BD465DF8047B704700BF0D
:103D280080B483B000AF786039607B683A685A63C2
:103D38000C37BD465DF8047B704700BF80B483B084
:103D480000AF786039607B683A689A630C37BD4683
:103D58005DF8047B704700BF80B483B000AF786023
:103D680039607B683A68DA630C37BD465DF8047BD6
:103D7800704700BF80B483B000AF786039607B685B
:103D88003A681A640C37BD465DF8047B704700BF7B
:103D980080B485B000AF78600B467B800023FB6061
:103DA8007B689B69FB60FB6823F00803FB607B88EA
:103DB800FA681343FB607B68FA689A611437BD465A
:103DC8005DF8047B704700BF80B485B000AF7860B1
:103DD8000B467B800023FB607B689B69FB60FB686C
:103DE80023F40063FB607B881B02FA681343FB60C3
:103DF8007B68FA689A611437BD465DF8047B7047A2
:103E080080B485B000AF78600B467B800023FB60F0
:103E18007B68DB69FB60FB6823F00803FB607B8839
:103E2800FA681343FB607B68FA68DA611437BD46A9
:103E38005DF8047B704700BF80B485B000AF786040
:103E48000B467B800023FB607B68DB69FB60FB68BB
:103E580023F40063FB607B881B02FA681343FB6052
:103E68007B68FA68DA611437BD465DF8047B7047F1
:103E780080B483B000AF78600B46FB70FB78002BF2
:103E880006D07B685B6C43F400427B685A6405E0AB
:103E98007B685B6CC3F30E027B685A640C37BD46C3
:103EA8005DF8047B704700BF80B582B000AF7860D2
:103EB8007A68264B9A420AD14FF480400121FFF7D5
:103EC80029FB4FF480400021FFF724FB3AE07A6891
:103ED8001F4B9A420AD14FF400300121FFF738FBFB
:103EE8004FF400300021FFF733FB2BE07A68194BC1
:103EF8009A420AD14FF480200121FFF729FB4FF4A1
:103F080080200021FFF724FB1CE07A68124B9A42BC
:103F18000AD14FF400200121FFF71AFB4FF40020CB
:103F28000021FFF715FB0DE07A680C4B9A4209D186
:103F38004FF480100121FFF70BFB4FF48010002194
:103F4800FFF706FB0837BD4680BD00BF00380140BB
:103F58000044004000480040004C00400050004031
:103F680080B594B000AF786039600023FB6400230B
:103F7800BB6400237B647B681B6823F001027B68B9
:103F88001A607B685B687B647B6C23F440537B64BA
:103F98003B689B687A6C13437B647B687A6C5A60D5
:103FA8007B681B687B647B6C23F4B05323F00C03A1
:103FB8007B643B685A683B68DB681A433B681B694B
:103FC80013437A6C13437B647B687A6C1A607B6852
:103FD8009B687B647B6C23F440737B643B685B6900
:103FE8007A6C13437B647B687A6C9A6007F10803E8
:103FF8001846FFF705F87A68324B9A4202D13B6BB4
:10400800BB6416E07A68304B9A4202D17B6BBB6482
:104018000FE07A682D4B9A4202D1BB6BBB6408E073
:104028007A682B4B9A4202D1FB6BBB6401E03B6C74
:10403800BB647B681B6803F40043002B11D0BB6C86
:104048005A003B681B68B2FBF3F3FB64BB6C5B0074
:104058003A681268B3FBF2F102FB01F29B1A7B6427
:104068000EE03B681B68BA6CB2FBF3F3FB643B6879
:104078001A68BB6CB3FBF2F102FB01F29B1A7B647A
:104088003B681B685A087B6C9A4202D8FB6C013368
:10409800FB647B681B6803F40043002B0BD0FB6CAC
:1040A80003F00F035B087B64FA6C4FF6F073134060
:1040B8007A6C1343FB64FB6C9AB27B689A81503725
:1040C800BD4680BD00380140004400400048004023
:1040D800004C004080B483B000AF78600B46FB70A2
:1040E800FB78002B06D07B681B6843F001027B68D5
:1040F8001A6005E07B681B6823F001027B681A6080
:104108000C37BD465DF8047B704700BF80B489B0AA
:1041180000AFF860B9601346FB710023BB61002350
:104128007B6100233B610023FB61FB68FB61BB688B
:104138009BB21B0A9BB2BB61BB68DBB27B617B692C
:10414800012202FA03F33B61BB69022B03D1FB692D
:104158000433FB6105E0BB69032B02D1FB6908331B
:10416800FB61FB79002B06D0FB69FA6911683A6993
:104178000A431A6006E0FB69FA6911683A69D24392
:104188000A401A602437BD465DF8047B704700BFBB
:1041980080B483B000AF786039607B689B6823F493
:1041A80080527B689A607B689A683B681A437B6890
:1041B8009A600C37BD465DF8047B704780B483B0C5
:1041C80000AF786039607B683A681A620C37BD4680
:1041D8005DF8047B704700BF002100F004B8144B61
:1041E8005B58435004311348134B42189A42FFF46A
:1041F800F6AF002100F004B8104B5B58435004316F
:104208000F48104B42189A42FFF4F6AF0E4A00F0DE
:1042180003B8002342F8043B0C4B9A42FFF4F9AF71
:1042280000F018F8FEF7DCFBFEF744FB70470000CF
:10423800D85400080000002050000020285500082D
:104248000000001078010010000200200012002079
:10425800FFF7FEBF80B500AF1E4B1E4AD2F888207C
:1042680042F47002C3F888201B4B1B4A126842F0C4
:1042780001021A60184A184B5968184B0B405360D2
:10428800154A154B1B6823F0847323F4803313609D
:10429800114B114A126822F480221A600E4B0E4A02
:1042A800526822F4FE025A600B4B0B4AD26A22F083
:1042B8000F02DA62084A084B196B094B0B4013636B
:1042C800054B00229A6000F00DF8024B4FF0006297
:1042D8009A6080BD00ED00E0001002400CC07FF83D
:1042E800CCFC00FF80B483B000AF00237B600023C8
:1042F8003B60324B314A126842F480321A602F4BCD
:104308001B6803F400333B607B6801337B603B68C8
:10431800002B03D17B68B3F5A06FF0D1274B1B6846
:1043280003F40033002B02D001233B6001E000239B
:104338003B603B68012B3CD1214B12221A601F4B7A
:104348001E4A52685A601D4B1C4A52685A601B4BE1
:104358001A4A526842F480625A60184B174A5268E7
:1043680022F47C125A60154B144A526842F4E8123F
:104378005A60124B114A126842F080721A6000BFEC
:104388000E4B1B6803F00073002BF9D00B4B0B4A44
:10439800526822F003025A60084B084A526842F0F9
:1043A80002025A6000BF054B5B6803F00C03082B40
:1043B800F9D10C37BD465DF8047B70470010024008
:1043C80000200240F0B4840743D0541E002A3ED097
:1043D800CDB2034603E0621E002C38D0144603F821
:1043E800015B9A07F7D1032C2AD9CDB245EA0525F6
:1043F8000F2C45EA054515D9A4F110073F0903F12B
:10440800100606EB07161A46156055609560D560CC
:104418001032B242F8D104F00F040137032C03EB39
:1044280007130DD91E462246043A032A46F8045BB0
:10443800FAD8221F22F003020432134404F00304C2
:104448002CB1C9B21C4403F8011BA342FBD1F0BC38
:10445800704714460346C6E7D1280008DD2800083F
:10446800E9280008312900083D29000849290008E1
:1044780055290008612900086D29000879290008D4
:10448800FF7F6480C8802D819181F6815A82BF8226
:1044980023838883EC835184B5841A857E85E285DD
:1044A8004786AB8610877487D8873D88A188058999
:1044B8006989CE89328A968AFA8A5E8BC38B278C61
:1044C8008B8CEF8C538DB78D1B8E7F8EE28E468F33
:1044D800AA8F0E907190D59039919C910092639219
:1044E800C7922A938E93F1935494B8941B957E9512
:1044F800E1954496A7960A976D97CF973298959825
:10450800F8985A99BD991F9A819AE49A469BA89B54
:104518000A9C6C9CCE9C309D929DF49D569EB79EA5
:10452800199F7A9FDC9F3DA09EA0FFA060A1C1A11A
:1045380022A283A2E4A245A3A5A306A466A4C7A4B5
:1045480027A587A5E7A547A6A7A607A766A7C6A77D
:1045580025A885A8E4A843A9A2A901AA60AABFAA78
:104568001EAB7CABDBAB39AC98ACF6AC54ADB2ADA2
:1045780010AE6DAECBAE29AF86AFE3AF40B09DB005
:10458800FAB057B1B4B110B26DB2C9B225B382B3A3
:10459800DEB339B495B4F1B44CB5A7B503B65EB67D
:1045A800B9B614B76EB7C9B723B87DB8D8B832B999
:1045B8008BB9E5B93FBA98BAF1BA4BBBA4BBFDBBFE
:1045C80055BCAEBC06BD5FBDB7BD0FBE67BEBEBEA7
:1045D80016BF6DBFC4BF1CC072C0C9C020C176C1A0
:1045E800CDC123C279C2CFC224C37AC3CFC324C4E6
:1045F80079C4CEC423C577C5CCC520C674C6C8C681
:104608001BC76FC7C2C715C868C8BBC80EC960C971
:10461800B3C905CA57CAA8CAFACA4BCB9CCBEDCBBB
:104628003ECC8FCCDFCC30CD80CDD0CD1FCE6FCE61
:10463800BECE0DCF5CCFABCFFACF48D096D0E4D06A
:1046480032D180D1CDD11AD267D2B4D201D34DD3D1
:104658009AD3E6D331D47DD4C8D414D55FD5A9D59F
:10466800F4D53ED689D6D2D61CD766D7AFD7F8D7D9
:1046780041D88AD8D2D81BD963D9ABD9F2D93ADA7A
:1046880081DAC8DA0EDB55DB9BDBE1DB27DC6DDC8E
:10469800B2DCF8DC3DDD81DDC6DD0ADE4EDE92DE11
:1046A800D6DE19DF5CDF9FDFE2DF24E067E0A9E008
:1046B800EAE02CE16DE1AEE1EFE130E270E2B0E278
:1046C800F0E230E36FE3AEE3EDE32CE46BE4A9E45E
:1046D800E7E424E562E59FE5DCE519E655E692E6C0
:1046E800CEE609E745E780E7BBE7F6E731E86BE8A0
:1046F800A5E8DFE818E951E98AE9C3E9FCE934EA01
:104708006CEAA3EADBEA12EB49EB80EBB6EBECEBE5
:1047180022EC58EC8DECC2ECF7EC2CED60ED94ED4E
:10472800C8EDFCED2FEE62EE95EEC7EEFAEE2BEF3C
:104738005DEF8FEFC0EFF1EF21F052F082F0B1F0B2
:10474800E1F010F13FF16EF19CF1CAF1F8F126F2B7
:1047580053F280F2ADF2DAF206F332F35DF389F345
:10476800B4F3DFF309F434F45EF487F4B1F4DAF463
:1047780003F52CF554F57CF5A4F5CBF5F2F519F60F
:1047880040F666F68CF6B2F6D7F6FDF621F746F750
:104798006AF78EF7B2F7D6F7F9F71CF83EF861F822
:1047A80083F8A4F8C6F8E7F808F928F949F969F987
:1047B80088F9A8F9C7F9E5F904FA22FA40FA5EFA85
:1047C8007BFA98FAB5FAD1FAEDFA09FB25FB40FB1A
:1047D8005BFB76FB90FBAAFBC4FBDDFBF7FB0FFC46
:1047E80028FC40FC58FC70FC87FC9EFCB5FCCCFC0B
:1047F800E2FCF8FC0DFD23FD38FD4CFD61FD75FD67
:1048080088FD9CFDAFFDC2FDD4FDE7FDF9FD0AFE64
:104818001CFE2DFE3DFE4EFE5EFE6EFE7DFE8CFEF7
:104828009BFEAAFEB8FEC6FED4FEE1FEEEFEFBFE2F
:1048380008FF14FF20FF2BFF36FF41FF4CFF56FFF8
:1048480060FF6AFF73FF7CFF85FF8EFF96FF9EFF68
:10485800A5FFACFFB3FFBAFFC0FFC6FFCCFFD1FF77
:10486800D7FFDBFFE0FFE4FFE8FFEBFFEFFFF2FF1E
:10487800F4FFF6FFF8FFFAFFFCFFFDFFFDFFFEFF68
:10488800FEFFFEFFFDFFFDFFFCFFFAFFF8FFF6FF4E
:10489800F4FFF2FFEFFFEBFFE8FFE4FFE0FFDBFFD1
:1048A800D7FFD1FFCCFFC6FFC0FFBAFFB3FFACFFF5
:1048B800A5FF9EFF96FF8EFF85FF7CFF73FF6AFFB3
:1048C80060FF56FF4CFF41FF36FF2BFF20FF14FF10
:1048D80008FFFBFEEEFEE1FED4FEC6FEB8FEAAFE11
:1048E8009BFE8CFE7DFE6EFE5EFE4EFE3DFE2DFEA8
:1048F8001CFE0AFEF9FDE7FDD4FDC2FDAFFD9CFDDF
:1049080088FD75FD61FD4CFD38FD23FD0DFDF8FCAE
:10491800E2FCCCFCB5FC9EFC87FC70FC58FC40FC1F
:1049280028FC0FFCF7FBDDFBC4FBAAFB90FB76FB26
:104938005BFB40FB25FB09FBEDFAD1FAB5FA98FAC7
:104948007BFA5EFA40FA22FA04FAE5F9C7F9A8F9FF
:1049580088F969F949F928F908F9E7F8C6F8A4F8CF
:1049680083F861F83EF81CF8F9F7D6F7B2F78EF736
:104978006AF746F721F7FDF6D7F6B2F68CF666F633
:1049880040F619F6F2F5CBF5A4F57CF554F52CF5BF
:1049980003F5DAF4B1F487F45EF434F409F4DFF3E0
:1049A800B4F389F35DF332F306F3DAF2ADF280F291
:1049B80053F226F2F8F1CAF19CF16EF13FF110F1D1
:1049C800E1F0B1F082F052F021F0F1EFC0EF8FEF9B
:1049D8005DEF2BEFFAEEC7EE95EE62EE2FEEFCEDF3
:1049E800C8ED94ED60ED2CEDF7ECC2EC8DEC58ECD5
:1049F80022ECECEBB6EB80EB49EB12EBDBEAA3EA3B
:104A08006CEA34EAFCE9C3E98AE951E918E9DFE824
:104A1800A5E86BE831E8F6E7BBE780E745E709E793
:104A2800CEE692E655E619E6DCE59FE562E524E583
:104A3800E7E4A9E46BE42CE4EDE3AEE36FE330E3F1
:104A4800F0E2B0E270E230E2EFE1AEE16DE12CE1DC
:104A5800EAE0A9E067E024E0E2DF9FDF5CDF19DF3E
:104A6800D6DE92DE4EDE0ADEC6DD81DD3DDDF8DC17
:104A7800B2DC6DDC27DCE1DB9BDB55DB0EDBC8DA67
:104A880081DA3ADAF2D9ABD963D91BD9D2D88AD824
:104A980041D8F8D7AFD766D71CD7D2D689D63ED655
:104AA800F4D5A9D55FD514D5C8D47DD431D4E6D3EF
:104AB8009AD34DD301D3B4D267D21AD2CDD180D1F3
:104AC80032D1E4D096D048D0FACFABCF5CCF0DCF5F
:104AD800BECE6FCE1FCED0CD80CD30CDDFCC8FCC2B
:104AE8003ECCEDCB9CCB4BCBFACAA8CA57CA05CA59
:104AF800B3C960C90EC9BBC868C815C8C2C76FC7E3
:104B08001BC7C8C674C620C6CCC577C523C5CEC4C6
:104B180079C424C4CFC37AC324C3CFC279C223C201
:104B2800CDC176C120C1C9C072C01CC0C4BF6DBF91
:104B380016BFBEBE67BE0FBEB7BD5FBD06BDAEBC6D
:104B480055BCFDBBA4BB4BBBF1BA98BA3FBAE5B99B
:104B58008BB932B9D8B87DB823B8C9B76EB714B70E
:104B6800B9B65EB603B6A7B54CB5F1B495B439B4C9
:104B7800DEB382B325B3C9B26DB210B2B4B157B1C6
:104B8800FAB09DB040B0E3AF86AF29AFCBAE6DAE03
:104B980010AEB2AD54ADF6AC98AC39ACDBAB7CAB77
:104BA8001EABBFAA60AA01AAA2A943A9E4A885A826
:104BB80025A8C6A766A707A7A7A647A6E7A587A506
:104BC80027A5C7A466A406A4A5A345A3E4A283A217
:104BD80022A2C1A160A1FFA09EA03DA0DC9F7A9F58
:104BE800199FB79E569EF49D929D309DCE9C6C9CBD
:104BF8000A9CA89B469BE49A819A1F9ABD995A9948
:104C0800F89895983298CF976D970A97A7964496F3
:104C1800E1957E951B95B8945494F1938E932A93BD
:104C2800C792639200929C913991D59071900E90A1
:104C3800AA8F468FE28E7F8E1B8EB78D538DEF8C99
:104C48008B8C278CC38B5E8BFA8A968A328ACE89A4
:104C580069890589A1883D88D88774871087AB86BC
:104C68004786E2857E851A85B5845184EC838883DE
:104C78002383BF825A82F68191812D81C880648006
:104C8800FF7F9A7F367FD17E6D7E087EA47D3F7D33
:104C9800DB7C767C127CAD7B497BE47A807A1C7A5B
:104CA800B7795379EE788A782678C1775D77F9767F
:104CB80095763076CC7568750475A0743B74D77397
:104CC80073730F73AB724772E3717F711C71B870A5
:104CD8005470F06F8D6F296FC56E626EFE6D9B6D9F
:104CE800376DD46C706C0D6CAA6B466BE36A806A86
:104CF8001D6ABA695769F46891682F68CC67696753
:104D08000667A4664166DF657D651A65B864566402
:104D1800F46392633063CE626C620A62A861476191
:104D2800E56084602260C15F605FFF5E9E5E3D5EFD
:104D3800DC5D7B5D1A5DB95C595CF85B985B375B41
:104D4800D75A775A175AB7595759F7589858385859
:104D5800D95779571A57BB565C56FD559E553F553E
:104D6800E05482542354C55366530853AA524C52F4
:104D7800EE5191513351D55078501B50BE4F614F71
:104D8800044FA74E4A4EEE4D914D354DD94C7C4CB3
:104D9800204CC54B694B0D4BB24A574AFB49A049B9
:104DA8004549EA4890483548DB4781472647CC467D
:104DB80073461946BF4566450D45B3445A440144F8
:104DC800A9435043F8429F424742EF41974140412F
:104DD800E84091403A40E23F8C3F353FDE3E883E16
:104DE800313EDB3D853D2F3DDA3C843C2F3CDA3BB0
:104DF800853B303BDB3A873A323ADE398A393639F5
:104E0800E3388F383C38E93796374337F0369E36E3
:104E18004B36F935A73556350435B3346234113479
:104E2800C0336F331F33CE327E322E32DF318F31B3
:104E38004031F130A23053300430B62F682F1A2F8A
:104E4800CC2E7E2E312EE42D972D4A2DFD2CB12C03
:104E5800642C182CCD2B812B362BEA2A9F2A552A15
:104E68000A2AC02975292C29E22898284F280628BB
:104E7800BD2774272C27E3269B2653260C26C425FA
:104E88007D253625F024A92463241D24D7239123C6
:104E98004C230623C1227D223822F421B0216C2123
:104EA8002821E520A2205F201C20DA1F971F551F0C
:104EB800141FD21E911E501E0F1ECE1D8E1D4E1D7C
:104EC8000E1DCE1C8F1C501C111CD21B931B551B76
:104ED800171BDA1A9C1A5F1A221AE519A9196C19F4
:104EE8003019F518B9187E1843180818CD179317F4
:104EF80059171F17E616AD1674163B160216CA1573
:104F080092155B152315EC14B5147E14481412146D
:104F1800DC13A61371133C130713D2129E126A12E4
:104F280036120212CF119C11691137110411D310D6
:104F3800A1106F103E100D10DD0FAC0F7C0F4D0F40
:104F48001D0FEE0EBF0E900E620E340E060ED80D1B
:104F5800AB0D7E0D510D240DF80CCC0CA10C750C6D
:104F68004A0C1F0CF50BCA0BA00B770B4D0B240B2F
:104F7800FB0AD20AAA0A820A5A0A330A0C0AE50963
:104F8800BE09980972094C0927090109DD08B80802
:104F9800940870084C0828080508E207C0079D0710
:104FA8007B075A0738071707F606D606B50695068B
:104FB8007606560637061906FA05DC05BE05A0056D
:104FC8008305660549052D051105F504D904BE04B8
:104FD800A30488046E0454043A0421040704EF036C
:104FE800D603BE03A6038E03770360034903320387
:104FF8001C030603F102DB02C602B2029D0289020B
:10500800760262024F023C022A0217020502F401EC
:10501800E201D101C101B001A00190018101720139
:1050280063015401460138012A011D0110010301E1
:10503800F600EA00DE00D300C800BD00B200A800F8
:105048009E0094008B008200790070006800600068
:10505800590052004B0044003E00380032002D0039
:10506800270023001E001A00160013000F000C0072
:105078000A00080006000400020001000100000008
:105088000000000001000100020004000600080002
:105098000A000C000F00130016001A001E0023005F
:1050A80027002D00320038003E0044004B0052001B
:1050B8005900600068007000790082008B0094003D
:1050C8009E00A800B200BD00C800D300DE00EA00C0
:1050D800F600030110011D012A013801460154019F
:1050E8006301720181019001A001B001C101D101E8
:1050F800E201F401050217022A023C024F02620291
:10510800760289029D02B202C602DB02F1020603A0
:105118001C0332034903600377038E03A603BE030F
:10512800D603EF03070421043A0454046E048804E8
:10513800A304BE04D904F50411052D054905660527
:105148008305A005BE05DC05FA05190637065606CF
:1051580076069506B506D606F606170738075A07DF
:105168007B079D07C007E207050828084C08700858
:105178009408B808DD08010927094C09720998093B
:10518800BE09E5090C0A330A5A0A820AAA0AD20A8F
:10519800FB0A240B4D0B770BA00BCA0BF50B1F0C4E
:1051A8004A0C750CA10CCC0CF80C240D510D7E0D7D
:1051B800AB0DD80D060E340E620E900EBF0EEE0E1D
:1051C8001D0F4D0F7C0FAC0FDD0F0D103E106F1033
:1051D800A110D3100411371169119C11CF110212BB
:1051E80036126A129E12D21207133C137113A613B9
:1051F800DC13121448147E14B514EC1423155B1533
:105208009215CA1502163B167416AD16E6161F1728
:1052180059179317CD17081843187E18B918F51899
:1052280030196C19A919E519221A5F1A9C1ADA1A89
:10523800171B551B931BD21B111C501C8F1CCE1CFB
:105248000E1D4E1D8E1DCE1D0F1E501E911ED21EF0
:10525800141F551F971FDA1F1C205F20A220E5206E
:1052680028216C21B021F42138227D22C122062375
:105278004C239123D7231D246324A924F024362505
:105288007D25C4250C2653269B26E3262C27742728
:10529800BD2706284F289828E2282C297529C029D7
:1052A8000A2A552A9F2AEA2A362B812BCD2B182C1D
:1052B800642CB12CFD2C4A2D972DE42D312E7E2EF9
:1052C800CC2E1A2F682FB62F04305330A230F1306D
:1052D80040318F31DF312E327E32CE321F336F3381
:1052E800C03311346234B33404355635A735F93533
:1052F8004B369E36F03643379637E9373C388F3889
:10530800E33836398A39DE39323A873ADB3A303B84
:10531800853BDA3B2F3C843CDA3C2F3D853DDB3D29
:10532800313E883EDE3E353F8C3FE23F3A40914079
:10533800E84040419741EF4147429F42F84250437D
:10534800A94301445A44B3440D456645BF4519462F
:105358007346CC4626478147DB4735489048EA489C
:105368004549A049FB49574AB24A0D4B694BC54BC1
:10537800204C7C4CD94C354D914DEE4D4A4EA74EA4
:10538800044F614FBE4F1B507850D5503351915147
:10539800EE514C52AA5208536653C55323548254B3
:1053A800E0543F559E55FD555C56BB561A577957E4
:1053B800D95738589858F7585759B759175A775AE4
:1053C800D75A375B985BF85B595CB95C1A5D7B5DB3
:1053D800DC5D3D5E9E5EFF5E605FC15F2260846053
:1053E800E5604761A8610A626C62CE6230639263CD
:1053F800F4635664B8641A657D65DF654166A46622
:1054080006676967CC672F689168F4685769BA6955
:105418001D6A806AE36A466BAA6B0D6C706CD46C6B
:10542800376D9B6DFE6D626EC56E296F8D6FF06F67
:105438005470B8701C717F71E3714772AB720F734F
:105448007373D7733B74A07404756875CC75307624
:105458009576F9765D77C17726788A78EE785379EC
:10546800B7791C7A807AE47A497BAD7B127C767CAA
:10547800DB7C3F7DA47D087E6D7ED17E367F9A7F62
:10548800B0B400AF084B1D68084B9C686B1C084AF9
:1054980002FB03F2074BA3FB04135B08D31A18465D
:1054A800BD46B0BC704700BF4405002010E000E0D6
:1054B80040420F00398EE33880B500AFFBF7DCFCC3
:0454C80080BD00BFE4
:0C54CC00CD0700089D130008311A0008ED
:1054D8000802002014020020200200201004080006
:1054E80010010204050608090A000000FF00000078
:1054F8001027000000000000010203040102030459
:105508000607080900000100020004000600080060
:105518000A000C001000200040008000000100007C
:1055280080B582B000AF4248424900F0ADF803466A
:10553800002B0CBF00230123DBB2002B34D03C4BE3
:105548009B8C9BB2FB713A4BDB6903F00303002B86
:1055580014BF00230123DBB2002B1ED0364B1B885F
:105568009BB201339BB2DBB2BB80344B1B889BB22E
:10557800BA889A420CBF00230123DBB2002B09D062
:105588002D4B1B889BB22E4AF979D1542A4BBA88E5
:105598001A8009E000F060F806E02548032100F0D1
:1055A80063F800F059F8FFE72148264900F06CF845
:1055B8000346002B0CBF00230123DBB2002B34D0A1
:1055C800214B1B889AB2214B1B889BB29A420CBF75
:1055D80000230123DBB2002B15D0154B1B4A128880
:1055E80092B21B498A5CD2B21A85184B1B889BB2AF
:1055F80001339AB2154B1A80144B1B889BB2DBB24D
:105608009AB2124B1A80114B1B889AB20E4B1B8808
:105618009BB29A4214BF00230123DBB2002B04D0B3
:1056280003480849002200F027F80837BD4680BD26
:10563800003801400501050036030020340300202E
:105648003402002007010700380300203A03002035
:105658003C0300200000000001B40248844601BC5D
:10566800604700BFC108000801B40248844601BC75
:10567800604700BFC541000801B40248844601BC28
:10568800604700BF290A000801B40248844601BCEB
:08569800604700BF99090008FA
:04000005080041E1CD
:00000001FF
